:100000000C9435000C945D000C945D000C945D0024
:100010000C945D000C945D000C945D000C945D00EC
:100020000C945D000C945D000C945D000C945D00DC
:100030000C945D000C945D000C945D000C945D00CC
:100040000C9479020C945D000C9447020C942102EC
:100050000C945D000C945D000C945D000C945D00AC
:100060000C945D000C945D00C30211241FBECFEF01
:10007000D8E0DEBFCDBF11E0A0E0B1E0E4E0FAE0FF
:1000800002C005900D92A633B107D9F722E0A6E38E
:10009000B1E001C01D92AC32B207E1F710E0C5E358
:1000A000D0E004C02197FE010E94D304C433D107DD
:1000B000C9F70E9402030C9400050C940000CF9233
:1000C000DF92EF92FF920F931F93CF93DF936C0118
:1000D0007A018B01C0E0D0E0CE15DF0589F0D801B0
:1000E0006D918D01D601ED91FC910190F081E02D93
:1000F000C6010995892B11F47E0102C02196ECCF2F
:10010000C701DF91CF911F910F91FF90EF90DF908A
:10011000CF900895FC01918D828D981761F0828DAA
:10012000DF01A80FB11D5D968C91928D9F5F9F732B
:10013000928F90E008958FEF9FEF0895FC01918DCD
:10014000828D981731F0828DE80FF11D858D90E03A
:1001500008958FEF9FEF0895FC01918D228D892FD7
:1001600090E0805C9F4F821B91098F7399270895BF
:1001700087E491E00E94AC0021E0892B09F420E0A3
:10018000822F0895FC01848DDF01A80FB11DA35AB1
:10019000BF4F2C91848D90E001968F739927848FA7
:1001A000A689B7892C93A089B1898C9180648C939E
:1001B000938D848D981306C00288F389E02D808189
:1001C0008F7D80830895EF92FF920F931F93CF93BB
:1001D000DF93EC0181E0888F9B8D8C8D981305C097
:1001E000E889F989808185FD24C0F62E0B8D10E009
:1001F0000F5F1F4F0F731127E02E8C8DE8120CC07C
:100200000FB607FCFACFE889F989808185FFF5CF21
:10021000CE010E94C200F1CF8B8DFE01E80FF11DCF
:10022000E35AFF4FF0820B8FEA89FB89808180625D
:1002300007C0EE89FF896083E889F989808180643D
:10024000808381E090E0DF91CF911F910F91FF902B
:10025000EF900895CF93DF93EC01888D8823C9F048
:10026000EA89FB89808185FD05C0A889B9898C91BF
:1002700086FD0FC00FB607FCF5CF808185FFF2CF5A
:10028000A889B9898C9185FFEDCFCE010E94C2006B
:10029000E7CFDF91CF91089580E090E0892B29F09E
:1002A0000E94B80081110C94000008953FB7F894A3
:1002B00080913B0190913C01A0913D01B0913E01A4
:1002C00026B5A89B05C02F3F19F00196A11DB11DB1
:1002D0003FBFBA2FA92F982F8827820F911DA11DEC
:1002E000B11DBC01CD0142E0660F771F881F991F29
:1002F0004A95D1F708958F929F92AF92BF92CF9275
:10030000DF92EF92FF926B017C010E9456014B013C
:100310005C01C114D104E104F104F1F00E94560122
:10032000DC01CB0188199909AA09BB09883E9340D1
:10033000A105B10570F321E0C21AD108E108F10866
:1003400088EE880E83E0981EA11CB11CC114D10454
:10035000E104F10419F7DDCFFF90EF90DF90CF902B
:10036000BF90AF909F908F9008952FB7F8946091B1
:100370003701709138018091390190913A012FBF76
:1003800008950E94D9046115710579F0FB0101906F
:100390000020E9F73197AF01461B570BDC01ED91C7
:1003A000FC910280F381E02D099480E090E00895B3
:1003B0004F925F926F927F92EF92FF920F931F93F3
:1003C000CF93DF93CDB7DEB7A1970FB6F894DEBF1A
:1003D0000FBECDBF7C01FA01CB0119A2223008F477
:1003E0002AE08E010F5D1F4F422E512C612C712C83
:1003F000BF01A30192010E94DE04F901CA0101506C
:1004000011096A3014F4605D01C0695CD8016C9315
:10041000232B242B252B61F7B801C7010E94C301B0
:10042000A1960FB6F894DEBF0FBECDBFDF91CF917E
:100430001F910F91FF90EF907F906F905F904F9082
:1004400008951F920F920FB60F9211242F933F938E
:100450004F935F936F937F938F939F93AF93BF93CC
:10046000EF93FF9387E491E00E94C200FF91EF9128
:10047000BF91AF919F918F917F916F915F914F91BC
:100480003F912F910F900FBE0F901F9018951F92C4
:100490000F920FB60F9211242F938F939F93EF9388
:1004A000FF93E0915701F09158018081E0915D0147
:1004B000F0915E0182FD12C09081809160018F5F9A
:1004C0008F7320916101821751F0E0916001F0E09B
:1004D000E95BFE4F958F8093600101C08081FF91A1
:1004E000EF919F918F912F910F900FBE0F901F90C2
:1004F00018951F920F920FB60F9211242F933F93CE
:100500008F939F93AF93BF93809137019091380160
:10051000A0913901B0913A013091360123E0230FC7
:100520002D3720F40196A11DB11D05C026E8230F2B
:100530000296A11DB11D209336018093370190933F
:100540003801A0933901B0933A0180913B01909119
:100550003C01A0913D01B0913E010196A11DB11D4C
:1005600080933B0190933C01A0933D01B0933E01E9
:10057000BF91AF919F918F913F912F910F900FBE9F
:100580000F901F901895E7E4F1E01382128288EE35
:1005900093E0A0E0B0E084839583A683B78384E0F2
:1005A00091E09183808385EC90E09587848784EC4B
:1005B00090E09787868780EC90E0918B808B81EC30
:1005C00090E0938B828B82EC90E0958B848B86EC11
:1005D00090E0978B868B118E128E138E148EE4EE24
:1005E000F1E0168217821086118612861386148611
:1005F000158616861786108A118A128A138A148A1B
:10060000158A0895789484B5826084BD84B581602C
:1006100084BD85B5826085BD85B5816085BD8091CD
:100620006E00816080936E00109281008091810045
:10063000826080938100809181008160809381003D
:10064000809180008160809380008091B1008460FF
:100650008093B1008091B00081608093B000809160
:100660007A00846080937A0080917A00826080931F
:100670007A0080917A00816080937A0080917A007C
:10068000806880937A001092C10010922802109224
:10069000290210922A0210922B021092E601109267
:1006A000E7011092E8011092E90160ED77E080E047
:1006B00090E00E947B0187E491E090932702809371
:1006C0002602E0915701F091580182E08083E09189
:1006D0005301F09154011082E0915501F0915601BF
:1006E00080E1808310925F01E0915B01F0915C01F9
:1006F00086E08083E0915901F0915A018081806108
:100700008083E0915901F0915A0180818860808353
:10071000E0915901F0915A01808180688083E091D5
:100720005901F0915A0180818F7D80830E94B5012B
:100730006093E6017093E7018093E8019093E901EB
:1007400060E171E080912602909127020E94C3012E
:100750006AE070E080E090E00E947B0181E080939D
:10076000FA0184EF882E99249394A12CB12C0E9435
:10077000B501672B682B692B41F40E94B5016230EB
:1007800071058105910508F40BC10E94B5016093C4
:100790004301709344018093450190934601C090BA
:1007A0003F01D0904001E0904101F09042016C1572
:1007B0007D058E059F0540F460933F0170934001D5
:1007C0008093410190934201C0903F01D09040013D
:1007D000E0904101F09042019B01AC012C193D09D0
:1007E0004E095F0969017A013AEFC316D104E104A9
:1007F000F10408F4D5C060933F01709340018093E9
:100800004101909342018092F2019092F301A092F3
:10081000F401B092F5011092F6011092F7011092D6
:10082000F8011092F9018091EA019091EB01A091F9
:10083000EC01B091ED018093EE019093EF01A09354
:10084000F001B093F1010E94B5016093EA01709349
:10085000EB018093EC019093ED010E94B501609350
:10086000E6017093E7018093E8019093E9010E940B
:10087000B5016B017C0162E271E0809126029091EA
:1008800027020E94C3012AE041E050E060E070E0EE
:1008900080912602909127020E94D80169E271E0BE
:1008A00080912602909127020E94C3012AE0B7019D
:1008B000A60180912602909127020E94D8016BE246
:1008C00071E080912602909127020E94C3018091DD
:1008D000EA019091EB01A091EC01B091ED01B7011B
:1008E000A601481B590B6A0B7B0B2AE0809126025C
:1008F000909127020E94D8016BE271E0809126025C
:10090000909127020E94C3014091EA015091EB01AE
:100910006091EC017091ED018091EE019091EF01F9
:10092000A091F001B091F101481B590B6A0B7B0BB0
:100930002AE080912602909127020E94D8016DE260
:1009400071E080912602909127020E94C3010E94CB
:10095000B501AB01BC012AE08091260290912702EB
:100960000E94D801E0902602F09027026FE271E029
:10097000C7010E94C3016FE171E0C7010E94C3017A
:1009800065E070E080E090E00E947B010E94B5018C
:100990006093EA017093EB018093EC019093ED0179
:1009A0000E944C01E4CEEE0FFF1F0590F491E02D64
:1009B000099481E090E0F8940C940005A1E21A2ECD
:1009C000AA1BBB1BFD010DC0AA1FBB1FEE1FFF1FF3
:1009D000A217B307E407F50720F0A21BB30BE40B43
:1009E000F50B661F771F881F991F1A9469F760958A
:1009F0007095809590959B01AC01BD01CF01089544
:040A0000F894FFCF98
:100A040000000000E3005F00AC008A009E002A01A1
:100A1400564D4450565F317C315F564D4450560D0F
:100A24000A00564D4450455F003A323A007C005F5C
:060A3400564D4450450040
:00000001FF
